{
  "contractName": "SupplyChain",
  "abi": [
    {
      "inputs": [],
      "payable": false,
      "stateMutability": "nonpayable",
      "type": "constructor"
    },
    {
      "constant": true,
      "inputs": [
        {
          "internalType": "uint256",
          "name": "",
          "type": "uint256"
        }
      ],
      "name": "DIS",
      "outputs": [
        {
          "internalType": "address",
          "name": "addr",
          "type": "address"
        },
        {
          "internalType": "uint256",
          "name": "id",
          "type": "uint256"
        },
        {
          "internalType": "string",
          "name": "name",
          "type": "string"
        },
        {
          "internalType": "string",
          "name": "place",
          "type": "string"
        }
      ],
      "payable": false,
      "stateMutability": "view",
      "type": "function"
    },
    {
      "constant": true,
      "inputs": [
        {
          "internalType": "uint256",
          "name": "",
          "type": "uint256"
        }
      ],
      "name": "MAN",
      "outputs": [
        {
          "internalType": "address",
          "name": "addr",
          "type": "address"
        },
        {
          "internalType": "uint256",
          "name": "id",
          "type": "uint256"
        },
        {
          "internalType": "string",
          "name": "name",
          "type": "string"
        },
        {
          "internalType": "string",
          "name": "place",
          "type": "string"
        }
      ],
      "payable": false,
      "stateMutability": "view",
      "type": "function"
    },
    {
      "constant": true,
      "inputs": [
        {
          "internalType": "uint256",
          "name": "",
          "type": "uint256"
        }
      ],
      "name": "MedicineStock",
      "outputs": [
        {
          "internalType": "uint256",
          "name": "id",
          "type": "uint256"
        },
        {
          "internalType": "string",
          "name": "name",
          "type": "string"
        },
        {
          "internalType": "string",
          "name": "description",
          "type": "string"
        },
        {
          "internalType": "uint256",
          "name": "RMSid",
          "type": "uint256"
        },
        {
          "internalType": "uint256",
          "name": "MANid",
          "type": "uint256"
        },
        {
          "internalType": "uint256",
          "name": "DISid",
          "type": "uint256"
        },
        {
          "internalType": "uint256",
          "name": "RETid",
          "type": "uint256"
        },
        {
          "internalType": "enum SupplyChain.STAGE",
          "name": "stage",
          "type": "uint8"
        }
      ],
      "payable": false,
      "stateMutability": "view",
      "type": "function"
    },
    {
      "constant": true,
      "inputs": [],
      "name": "Owner",
      "outputs": [
        {
          "internalType": "address",
          "name": "",
          "type": "address"
        }
      ],
      "payable": false,
      "stateMutability": "view",
      "type": "function"
    },
    {
      "constant": true,
      "inputs": [
        {
          "internalType": "uint256",
          "name": "",
          "type": "uint256"
        }
      ],
      "name": "RET",
      "outputs": [
        {
          "internalType": "address",
          "name": "addr",
          "type": "address"
        },
        {
          "internalType": "uint256",
          "name": "id",
          "type": "uint256"
        },
        {
          "internalType": "string",
          "name": "name",
          "type": "string"
        },
        {
          "internalType": "string",
          "name": "place",
          "type": "string"
        }
      ],
      "payable": false,
      "stateMutability": "view",
      "type": "function"
    },
    {
      "constant": true,
      "inputs": [
        {
          "internalType": "uint256",
          "name": "",
          "type": "uint256"
        }
      ],
      "name": "RMS",
      "outputs": [
        {
          "internalType": "address",
          "name": "addr",
          "type": "address"
        },
        {
          "internalType": "uint256",
          "name": "id",
          "type": "uint256"
        },
        {
          "internalType": "string",
          "name": "name",
          "type": "string"
        },
        {
          "internalType": "string",
          "name": "place",
          "type": "string"
        }
      ],
      "payable": false,
      "stateMutability": "view",
      "type": "function"
    },
    {
      "constant": true,
      "inputs": [],
      "name": "disCtr",
      "outputs": [
        {
          "internalType": "uint256",
          "name": "",
          "type": "uint256"
        }
      ],
      "payable": false,
      "stateMutability": "view",
      "type": "function"
    },
    {
      "constant": true,
      "inputs": [
        {
          "internalType": "uint256",
          "name": "",
          "type": "uint256"
        }
      ],
      "name": "distributeTimestamps",
      "outputs": [
        {
          "internalType": "uint256",
          "name": "",
          "type": "uint256"
        }
      ],
      "payable": false,
      "stateMutability": "view",
      "type": "function"
    },
    {
      "constant": true,
      "inputs": [],
      "name": "manCtr",
      "outputs": [
        {
          "internalType": "uint256",
          "name": "",
          "type": "uint256"
        }
      ],
      "payable": false,
      "stateMutability": "view",
      "type": "function"
    },
    {
      "constant": true,
      "inputs": [
        {
          "internalType": "uint256",
          "name": "",
          "type": "uint256"
        }
      ],
      "name": "manufacturingTimestamps",
      "outputs": [
        {
          "internalType": "uint256",
          "name": "",
          "type": "uint256"
        }
      ],
      "payable": false,
      "stateMutability": "view",
      "type": "function"
    },
    {
      "constant": true,
      "inputs": [],
      "name": "medicineCtr",
      "outputs": [
        {
          "internalType": "uint256",
          "name": "",
          "type": "uint256"
        }
      ],
      "payable": false,
      "stateMutability": "view",
      "type": "function"
    },
    {
      "constant": true,
      "inputs": [
        {
          "internalType": "uint256",
          "name": "",
          "type": "uint256"
        }
      ],
      "name": "medicineTimestamps",
      "outputs": [
        {
          "internalType": "uint256",
          "name": "",
          "type": "uint256"
        }
      ],
      "payable": false,
      "stateMutability": "view",
      "type": "function"
    },
    {
      "constant": true,
      "inputs": [],
      "name": "retCtr",
      "outputs": [
        {
          "internalType": "uint256",
          "name": "",
          "type": "uint256"
        }
      ],
      "payable": false,
      "stateMutability": "view",
      "type": "function"
    },
    {
      "constant": true,
      "inputs": [
        {
          "internalType": "uint256",
          "name": "",
          "type": "uint256"
        }
      ],
      "name": "retailTimestamps",
      "outputs": [
        {
          "internalType": "uint256",
          "name": "",
          "type": "uint256"
        }
      ],
      "payable": false,
      "stateMutability": "view",
      "type": "function"
    },
    {
      "constant": true,
      "inputs": [],
      "name": "rmsCtr",
      "outputs": [
        {
          "internalType": "uint256",
          "name": "",
          "type": "uint256"
        }
      ],
      "payable": false,
      "stateMutability": "view",
      "type": "function"
    },
    {
      "constant": true,
      "inputs": [
        {
          "internalType": "uint256",
          "name": "",
          "type": "uint256"
        }
      ],
      "name": "supplyTimestamps",
      "outputs": [
        {
          "internalType": "uint256",
          "name": "",
          "type": "uint256"
        }
      ],
      "payable": false,
      "stateMutability": "view",
      "type": "function"
    },
    {
      "constant": true,
      "inputs": [
        {
          "internalType": "uint256",
          "name": "_medicineID",
          "type": "uint256"
        }
      ],
      "name": "showStage",
      "outputs": [
        {
          "internalType": "string",
          "name": "",
          "type": "string"
        }
      ],
      "payable": false,
      "stateMutability": "view",
      "type": "function"
    },
    {
      "constant": false,
      "inputs": [
        {
          "internalType": "address",
          "name": "_address",
          "type": "address"
        },
        {
          "internalType": "string",
          "name": "_name",
          "type": "string"
        },
        {
          "internalType": "string",
          "name": "_place",
          "type": "string"
        }
      ],
      "name": "addRMS",
      "outputs": [],
      "payable": false,
      "stateMutability": "nonpayable",
      "type": "function"
    },
    {
      "constant": false,
      "inputs": [
        {
          "internalType": "address",
          "name": "_address",
          "type": "address"
        },
        {
          "internalType": "string",
          "name": "_name",
          "type": "string"
        },
        {
          "internalType": "string",
          "name": "_place",
          "type": "string"
        }
      ],
      "name": "addManufacturer",
      "outputs": [],
      "payable": false,
      "stateMutability": "nonpayable",
      "type": "function"
    },
    {
      "constant": false,
      "inputs": [
        {
          "internalType": "address",
          "name": "_address",
          "type": "address"
        },
        {
          "internalType": "string",
          "name": "_name",
          "type": "string"
        },
        {
          "internalType": "string",
          "name": "_place",
          "type": "string"
        }
      ],
      "name": "addDistributor",
      "outputs": [],
      "payable": false,
      "stateMutability": "nonpayable",
      "type": "function"
    },
    {
      "constant": false,
      "inputs": [
        {
          "internalType": "address",
          "name": "_address",
          "type": "address"
        },
        {
          "internalType": "string",
          "name": "_name",
          "type": "string"
        },
        {
          "internalType": "string",
          "name": "_place",
          "type": "string"
        }
      ],
      "name": "addRetailer",
      "outputs": [],
      "payable": false,
      "stateMutability": "nonpayable",
      "type": "function"
    },
    {
      "constant": false,
      "inputs": [
        {
          "internalType": "uint256",
          "name": "_medicineID",
          "type": "uint256"
        }
      ],
      "name": "RMSsupply",
      "outputs": [],
      "payable": false,
      "stateMutability": "nonpayable",
      "type": "function"
    },
    {
      "constant": false,
      "inputs": [
        {
          "internalType": "uint256",
          "name": "_medicineID",
          "type": "uint256"
        }
      ],
      "name": "Manufacturing",
      "outputs": [],
      "payable": false,
      "stateMutability": "nonpayable",
      "type": "function"
    },
    {
      "constant": false,
      "inputs": [
        {
          "internalType": "uint256",
          "name": "_medicineID",
          "type": "uint256"
        }
      ],
      "name": "Distribute",
      "outputs": [],
      "payable": false,
      "stateMutability": "nonpayable",
      "type": "function"
    },
    {
      "constant": false,
      "inputs": [
        {
          "internalType": "uint256",
          "name": "_medicineID",
          "type": "uint256"
        }
      ],
      "name": "Retail",
      "outputs": [],
      "payable": false,
      "stateMutability": "nonpayable",
      "type": "function"
    },
    {
      "constant": false,
      "inputs": [
        {
          "internalType": "uint256",
          "name": "_medicineID",
          "type": "uint256"
        }
      ],
      "name": "sold",
      "outputs": [],
      "payable": false,
      "stateMutability": "nonpayable",
      "type": "function"
    },
    {
      "constant": false,
      "inputs": [
        {
          "internalType": "string",
          "name": "_name",
          "type": "string"
        },
        {
          "internalType": "string",
          "name": "_description",
          "type": "string"
        }
      ],
      "name": "addMedicine",
      "outputs": [],
      "payable": false,
      "stateMutability": "nonpayable",
      "type": "function"
    }
  ],
  "bytecode": "0x60806040526000600155600060025560006003556000600455600060055534801561002957600080fd5b50336000806101000a81548173ffffffffffffffffffffffffffffffffffffffff021916908373ffffffffffffffffffffffffffffffffffffffff160217905550612d98806100796000396000f3fe608060405234801561001057600080fd5b50600436106101a95760003560e01c8063857ddb04116100f9578063cc40306911610097578063e401754e11610071578063e401754e14610fe2578063eb1a06b514611024578063eef5cb401461116f578063f0713030146112bc576101a9565b8063cc40306914610dd0578063dd28639814610f1d578063e101a2e014610f3b576101a9565b80639c03facb116100d35780639c03facb14610d0c578063a48d335a14610d3a578063a95f29d914610d68578063b4a99a4e14610d86576101a9565b8063857ddb0414610a1a57806386c1827514610b8c5780638f4183cc14610bba576101a9565b8063438e9c4d1161016657806359bf286f1161014057806359bf286f146106fb578063642ded51146108485780636a992c9f1461088a5780637e43d94d146109fc576101a9565b8063438e9c4d1461066d5780634def474a1461068b57806357d8bdee146106b9576101a9565b80632a4af440146101ae5780632b0187ac146103205780632b70b08d1461046d5780632bdb2e6b146105df57806335cacb0b146105fd5780633d753a1c1461063f575b600080fd5b61031e600480360360608110156101c457600080fd5b81019080803573ffffffffffffffffffffffffffffffffffffffff1690602001909291908035906020019064010000000081111561020157600080fd5b82018360208201111561021357600080fd5b8035906020019184600183028401116401000000008311171561023557600080fd5b91908080601f016020809104026020016040519081016040528093929190818152602001838380828437600081840152601f19601f8201169050808301925050505050505091929192908035906020019064010000000081111561029857600080fd5b8201836020820111156102aa57600080fd5b803590602001918460018302840111640100000000831117156102cc57600080fd5b91908080601f016020809104026020016040519081016040528093929190818152602001838380828437600081840152601f19601f8201169050808301925050505050505091929192905050506112fe565b005b61034c6004803603602081101561033657600080fd5b810190808035906020019092919050505061144a565b604051808573ffffffffffffffffffffffffffffffffffffffff1673ffffffffffffffffffffffffffffffffffffffff1681526020018481526020018060200180602001838103835285818151815260200191508051906020019080838360005b838110156103c85780820151818401526020810190506103ad565b50505050905090810190601f1680156103f55780820380516001836020036101000a031916815260200191505b50838103825284818151815260200191508051906020019080838360005b8381101561042e578082015181840152602081019050610413565b50505050905090810190601f16801561045b5780820380516001836020036101000a031916815260200191505b50965050505050505060405180910390f35b6105dd6004803603606081101561048357600080fd5b81019080803573ffffffffffffffffffffffffffffffffffffffff169060200190929190803590602001906401000000008111156104c057600080fd5b8201836020820111156104d257600080fd5b803590602001918460018302840111640100000000831117156104f457600080fd5b91908080601f016020809104026020016040519081016040528093929190818152602001838380828437600081840152601f19601f8201169050808301925050505050505091929192908035906020019064010000000081111561055757600080fd5b82018360208201111561056957600080fd5b8035906020019184600183028401116401000000008311171561058b57600080fd5b91908080601f016020809104026020016040519081016040528093929190818152602001838380828437600081840152601f19601f8201169050808301925050505050505091929192905050506115ca565b005b6105e7611716565b6040518082815260200191505060405180910390f35b6106296004803603602081101561061357600080fd5b810190808035906020019092919050505061171c565b6040518082815260200191505060405180910390f35b61066b6004803603602081101561065557600080fd5b8101908080359060200190929190505050611734565b005b61067561181e565b6040518082815260200191505060405180910390f35b6106b7600480360360208110156106a157600080fd5b8101908080359060200190929190505050611824565b005b6106e5600480360360208110156106cf57600080fd5b810190808035906020019092919050505061190e565b6040518082815260200191505060405180910390f35b6107276004803603602081101561071157600080fd5b8101908080359060200190929190505050611926565b604051808573ffffffffffffffffffffffffffffffffffffffff1673ffffffffffffffffffffffffffffffffffffffff1681526020018481526020018060200180602001838103835285818151815260200191508051906020019080838360005b838110156107a3578082015181840152602081019050610788565b50505050905090810190601f1680156107d05780820380516001836020036101000a031916815260200191505b50838103825284818151815260200191508051906020019080838360005b838110156108095780820151818401526020810190506107ee565b50505050905090810190601f1680156108365780820380516001836020036101000a031916815260200191505b50965050505050505060405180910390f35b6108746004803603602081101561085e57600080fd5b8101908080359060200190929190505050611aa6565b6040518082815260200191505060405180910390f35b6109fa600480360360608110156108a057600080fd5b81019080803573ffffffffffffffffffffffffffffffffffffffff169060200190929190803590602001906401000000008111156108dd57600080fd5b8201836020820111156108ef57600080fd5b8035906020019184600183028401116401000000008311171561091157600080fd5b91908080601f016020809104026020016040519081016040528093929190818152602001838380828437600081840152601f19601f8201169050808301925050505050505091929192908035906020019064010000000081111561097457600080fd5b82018360208201111561098657600080fd5b803590602001918460018302840111640100000000831117156109a857600080fd5b91908080601f016020809104026020016040519081016040528093929190818152602001838380828437600081840152601f19601f820116905080830192505050505050509192919290505050611abe565b005b610a04611c0a565b6040518082815260200191505060405180910390f35b610b8a60048036036060811015610a3057600080fd5b81019080803573ffffffffffffffffffffffffffffffffffffffff16906020019092919080359060200190640100000000811115610a6d57600080fd5b820183602082011115610a7f57600080fd5b80359060200191846001830284011164010000000083111715610aa157600080fd5b91908080601f016020809104026020016040519081016040528093929190818152602001838380828437600081840152601f19601f82011690508083019250505050505050919291929080359060200190640100000000811115610b0457600080fd5b820183602082011115610b1657600080fd5b80359060200191846001830284011164010000000083111715610b3857600080fd5b91908080601f016020809104026020016040519081016040528093929190818152602001838380828437600081840152601f19601f820116905080830192505050505050509192919290505050611c10565b005b610bb860048036036020811015610ba257600080fd5b8101908080359060200190929190505050611d5c565b005b610d0a60048036036040811015610bd057600080fd5b8101908080359060200190640100000000811115610bed57600080fd5b820183602082011115610bff57600080fd5b80359060200191846001830284011164010000000083111715610c2157600080fd5b91908080601f016020809104026020016040519081016040528093929190818152602001838380828437600081840152601f19601f82011690508083019250505050505050919291929080359060200190640100000000811115610c8457600080fd5b820183602082011115610c9657600080fd5b80359060200191846001830284011164010000000083111715610cb857600080fd5b91908080601f016020809104026020016040519081016040528093929190818152602001838380828437600081840152601f19601f820116905080830192505050505050509192919290505050611e46565b005b610d3860048036036020811015610d2257600080fd5b8101908080359060200190929190505050612001565b005b610d6660048036036020811015610d5057600080fd5b81019080803590602001909291905050506120da565b005b610d706121c4565b6040518082815260200191505060405180910390f35b610d8e6121ca565b604051808273ffffffffffffffffffffffffffffffffffffffff1673ffffffffffffffffffffffffffffffffffffffff16815260200191505060405180910390f35b610dfc60048036036020811015610de657600080fd5b81019080803590602001909291905050506121ef565b604051808573ffffffffffffffffffffffffffffffffffffffff1673ffffffffffffffffffffffffffffffffffffffff1681526020018481526020018060200180602001838103835285818151815260200191508051906020019080838360005b83811015610e78578082015181840152602081019050610e5d565b50505050905090810190601f168015610ea55780820380516001836020036101000a031916815260200191505b50838103825284818151815260200191508051906020019080838360005b83811015610ede578082015181840152602081019050610ec3565b50505050905090810190601f168015610f0b5780820380516001836020036101000a031916815260200191505b50965050505050505060405180910390f35b610f2561236f565b6040518082815260200191505060405180910390f35b610f6760048036036020811015610f5157600080fd5b8101908080359060200190929190505050612375565b6040518080602001828103825283818151815260200191508051906020019080838360005b83811015610fa7578082015181840152602081019050610f8c565b50505050905090810190601f168015610fd45780820380516001836020036101000a031916815260200191505b509250505060405180910390f35b61100e60048036036020811015610ff857600080fd5b8101908080359060200190929190505050612685565b6040518082815260200191505060405180910390f35b6110506004803603602081101561103a57600080fd5b810190808035906020019092919050505061269d565b60405180898152602001806020018060200188815260200187815260200186815260200185815260200184600581111561108657fe5b60ff16815260200183810383528a818151815260200191508051906020019080838360005b838110156110c65780820151818401526020810190506110ab565b50505050905090810190601f1680156110f35780820380516001836020036101000a031916815260200191505b50838103825289818151815260200191508051906020019080838360005b8381101561112c578082015181840152602081019050611111565b50505050905090810190601f1680156111595780820380516001836020036101000a031916815260200191505b509a505050505050505050505060405180910390f35b61119b6004803603602081101561118557600080fd5b8101908080359060200190929190505050612822565b604051808573ffffffffffffffffffffffffffffffffffffffff1673ffffffffffffffffffffffffffffffffffffffff1681526020018481526020018060200180602001838103835285818151815260200191508051906020019080838360005b838110156112175780820151818401526020810190506111fc565b50505050905090810190601f1680156112445780820380516001836020036101000a031916815260200191505b50838103825284818151815260200191508051906020019080838360005b8381101561127d578082015181840152602081019050611262565b50505050905090810190601f1680156112aa5780820380516001836020036101000a031916815260200191505b50965050505050505060405180910390f35b6112e8600480360360208110156112d257600080fd5b81019080803590602001909291905050506129a2565b6040518082815260200191505060405180910390f35b6000809054906101000a900473ffffffffffffffffffffffffffffffffffffffff1673ffffffffffffffffffffffffffffffffffffffff163373ffffffffffffffffffffffffffffffffffffffff161461135757600080fd5b60046000815480929190600101919050555060405180608001604052808473ffffffffffffffffffffffffffffffffffffffff16815260200160045481526020018381526020018281525060096000600454815260200190815260200160002060008201518160000160006101000a81548173ffffffffffffffffffffffffffffffffffffffff021916908373ffffffffffffffffffffffffffffffffffffffff160217905550602082015181600101556040820151816002019080519060200190611424929190612cbe565b506060820151816003019080519060200190611441929190612cbe565b50905050505050565b60096020528060005260406000206000915090508060000160009054906101000a900473ffffffffffffffffffffffffffffffffffffffff1690806001015490806002018054600181600116156101000203166002900480601f0160208091040260200160405190810160405280929190818152602001828054600181600116156101000203166002900480156115225780601f106114f757610100808354040283529160200191611522565b820191906000526020600020905b81548152906001019060200180831161150557829003601f168201915b505050505090806003018054600181600116156101000203166002900480601f0160208091040260200160405190810160405280929190818152602001828054600181600116156101000203166002900480156115c05780601f10611595576101008083540402835291602001916115c0565b820191906000526020600020905b8154815290600101906020018083116115a357829003601f168201915b5050505050905084565b6000809054906101000a900473ffffffffffffffffffffffffffffffffffffffff1673ffffffffffffffffffffffffffffffffffffffff163373ffffffffffffffffffffffffffffffffffffffff161461162357600080fd5b60026000815480929190600101919050555060405180608001604052808473ffffffffffffffffffffffffffffffffffffffff16815260200160025481526020018381526020018281525060076000600254815260200190815260200160002060008201518160000160006101000a81548173ffffffffffffffffffffffffffffffffffffffff021916908373ffffffffffffffffffffffffffffffffffffffff1602179055506020820151816001015560408201518160020190805190602001906116f0929190612cbe565b50606082015181600301908051906020019061170d929190612cbe565b50905050505050565b60045481565b600d6020528060005260406000206000915090505481565b60008111801561174657506001548111155b61174f57600080fd5b600061175a336129ba565b90506000811161176957600080fd5b6003600581111561177657fe5b6006600084815260200190815260200160002060070160009054906101000a900460ff1660058111156117a557fe5b146117af57600080fd5b80600660008481526020019081526020016000206006018190555060046006600084815260200190815260200160002060070160006101000a81548160ff021916908360058111156117fd57fe5b021790555042600e6000848152602001908152602001600020819055505050565b60035481565b60008111801561183657506001548111155b61183f57600080fd5b600061184a33612a7b565b90506000811161185957600080fd5b6002600581111561186657fe5b6006600084815260200190815260200160002060070160009054906101000a900460ff16600581111561189557fe5b1461189f57600080fd5b80600660008481526020019081526020016000206005018190555060036006600084815260200190815260200160002060070160006101000a81548160ff021916908360058111156118ed57fe5b021790555042600d6000848152602001908152602001600020819055505050565b600e6020528060005260406000206000915090505481565b600a6020528060005260406000206000915090508060000160009054906101000a900473ffffffffffffffffffffffffffffffffffffffff1690806001015490806002018054600181600116156101000203166002900480601f0160208091040260200160405190810160405280929190818152602001828054600181600116156101000203166002900480156119fe5780601f106119d3576101008083540402835291602001916119fe565b820191906000526020600020905b8154815290600101906020018083116119e157829003601f168201915b505050505090806003018054600181600116156101000203166002900480601f016020809104026020016040519081016040528092919081815260200182805460018160011615610100020316600290048015611a9c5780601f10611a7157610100808354040283529160200191611a9c565b820191906000526020600020905b815481529060010190602001808311611a7f57829003601f168201915b5050505050905084565b600f6020528060005260406000206000915090505481565b6000809054906101000a900473ffffffffffffffffffffffffffffffffffffffff1673ffffffffffffffffffffffffffffffffffffffff163373ffffffffffffffffffffffffffffffffffffffff1614611b1757600080fd5b60036000815480929190600101919050555060405180608001604052808473ffffffffffffffffffffffffffffffffffffffff16815260200160035481526020018381526020018281525060086000600354815260200190815260200160002060008201518160000160006101000a81548173ffffffffffffffffffffffffffffffffffffffff021916908373ffffffffffffffffffffffffffffffffffffffff160217905550602082015181600101556040820151816002019080519060200190611be4929190612cbe565b506060820151816003019080519060200190611c01929190612cbe565b50905050505050565b60055481565b6000809054906101000a900473ffffffffffffffffffffffffffffffffffffffff1673ffffffffffffffffffffffffffffffffffffffff163373ffffffffffffffffffffffffffffffffffffffff1614611c6957600080fd5b60056000815480929190600101919050555060405180608001604052808473ffffffffffffffffffffffffffffffffffffffff168152602001600554815260200183815260200182815250600a6000600554815260200190815260200160002060008201518160000160006101000a81548173ffffffffffffffffffffffffffffffffffffffff021916908373ffffffffffffffffffffffffffffffffffffffff160217905550602082015181600101556040820151816002019080519060200190611d36929190612cbe565b506060820151816003019080519060200190611d53929190612cbe565b50905050505050565b600081118015611d6e57506001548111155b611d7757600080fd5b6000611d8233612b3c565b905060008111611d9157600080fd5b60006005811115611d9e57fe5b6006600084815260200190815260200160002060070160009054906101000a900460ff166005811115611dcd57fe5b14611dd757600080fd5b80600660008481526020019081526020016000206003018190555060016006600084815260200190815260200160002060070160006101000a81548160ff02191690836005811115611e2557fe5b021790555042600b6000848152602001908152602001600020819055505050565b6000809054906101000a900473ffffffffffffffffffffffffffffffffffffffff1673ffffffffffffffffffffffffffffffffffffffff163373ffffffffffffffffffffffffffffffffffffffff1614611e9f57600080fd5b6000600254118015611eb357506000600354115b8015611ec157506000600454115b8015611ecf57506000600554115b611ed857600080fd5b60016000815480929190600101919050555060405180610100016040528060015481526020018381526020018281526020016000815260200160008152602001600081526020016000815260200160006005811115611f3357fe5b815250600660006001548152602001908152602001600020600082015181600001556020820151816001019080519060200190611f71929190612cbe565b506040820151816002019080519060200190611f8e929190612cbe565b50606082015181600301556080820151816004015560a0820151816005015560c0820151816006015560e08201518160070160006101000a81548160ff02191690836005811115611fdb57fe5b021790555090505042600f60006001548152602001908152602001600020819055505050565b60008111801561201357506001548111155b61201c57600080fd5b6000612027336129ba565b90506000811161203657600080fd5b6006600083815260200190815260200160002060060154811461205857600080fd5b6004600581111561206557fe5b6006600084815260200190815260200160002060070160009054906101000a900460ff16600581111561209457fe5b1461209e57600080fd5b60056006600084815260200190815260200160002060070160006101000a81548160ff021916908360058111156120d157fe5b02179055505050565b6000811180156120ec57506001548111155b6120f557600080fd5b600061210033612bfd565b90506000811161210f57600080fd5b6001600581111561211c57fe5b6006600084815260200190815260200160002060070160009054906101000a900460ff16600581111561214b57fe5b1461215557600080fd5b80600660008481526020019081526020016000206004018190555060026006600084815260200190815260200160002060070160006101000a81548160ff021916908360058111156121a357fe5b021790555042600c6000848152602001908152602001600020819055505050565b60015481565b6000809054906101000a900473ffffffffffffffffffffffffffffffffffffffff1681565b60086020528060005260406000206000915090508060000160009054906101000a900473ffffffffffffffffffffffffffffffffffffffff1690806001015490806002018054600181600116156101000203166002900480601f0160208091040260200160405190810160405280929190818152602001828054600181600116156101000203166002900480156122c75780601f1061229c576101008083540402835291602001916122c7565b820191906000526020600020905b8154815290600101906020018083116122aa57829003601f168201915b505050505090806003018054600181600116156101000203166002900480601f0160208091040260200160405190810160405280929190818152602001828054600181600116156101000203166002900480156123655780601f1061233a57610100808354040283529160200191612365565b820191906000526020600020905b81548152906001019060200180831161234857829003601f168201915b5050505050905084565b60025481565b606060006001541161238657600080fd5b6000600581111561239357fe5b6006600084815260200190815260200160002060070160009054906101000a900460ff1660058111156123c257fe5b1415612405576040518060400160405280600f81526020017f50726f64756374204f72646572656400000000000000000000000000000000008152509050612680565b6001600581111561241257fe5b6006600084815260200190815260200160002060070160009054906101000a900460ff16600581111561244157fe5b1415612484576040518060400160405280601981526020017f526177204d6174657269616c20537570706c79205374616765000000000000008152509050612680565b6002600581111561249157fe5b6006600084815260200190815260200160002060070160009054906101000a900460ff1660058111156124c057fe5b1415612503576040518060400160405280601381526020017f4d616e75666163747572696e67205374616765000000000000000000000000008152509050612680565b6003600581111561251057fe5b6006600084815260200190815260200160002060070160009054906101000a900460ff16600581111561253f57fe5b1415612582576040518060400160405280601281526020017f446973747269627574696f6e20537461676500000000000000000000000000008152509050612680565b6004600581111561258f57fe5b6006600084815260200190815260200160002060070160009054906101000a900460ff1660058111156125be57fe5b1415612601576040518060400160405280600c81526020017f52657461696c20537461676500000000000000000000000000000000000000008152509050612680565b60058081111561260d57fe5b6006600084815260200190815260200160002060070160009054906101000a900460ff16600581111561263c57fe5b141561267f576040518060400160405280600c81526020017f50726f6475637420536f6c6400000000000000000000000000000000000000008152509050612680565b5b919050565b600b6020528060005260406000206000915090505481565b6006602052806000526040600020600091509050806000015490806001018054600181600116156101000203166002900480601f01602080910402602001604051908101604052809291908181526020018280546001816001161561010002031660029004801561274f5780601f106127245761010080835404028352916020019161274f565b820191906000526020600020905b81548152906001019060200180831161273257829003601f168201915b505050505090806002018054600181600116156101000203166002900480601f0160208091040260200160405190810160405280929190818152602001828054600181600116156101000203166002900480156127ed5780601f106127c2576101008083540402835291602001916127ed565b820191906000526020600020905b8154815290600101906020018083116127d057829003601f168201915b5050505050908060030154908060040154908060050154908060060154908060070160009054906101000a900460ff16905088565b60076020528060005260406000206000915090508060000160009054906101000a900473ffffffffffffffffffffffffffffffffffffffff1690806001015490806002018054600181600116156101000203166002900480601f0160208091040260200160405190810160405280929190818152602001828054600181600116156101000203166002900480156128fa5780601f106128cf576101008083540402835291602001916128fa565b820191906000526020600020905b8154815290600101906020018083116128dd57829003601f168201915b505050505090806003018054600181600116156101000203166002900480601f0160208091040260200160405190810160405280929190818152602001828054600181600116156101000203166002900480156129985780601f1061296d57610100808354040283529160200191612998565b820191906000526020600020905b81548152906001019060200180831161297b57829003601f168201915b5050505050905084565b600c6020528060005260406000206000915090505481565b600080600554116129ca57600080fd5b6000600190505b6005548111612a70578273ffffffffffffffffffffffffffffffffffffffff16600a600083815260200190815260200160002060000160009054906101000a900473ffffffffffffffffffffffffffffffffffffffff1673ffffffffffffffffffffffffffffffffffffffff161415612a6357600a600082815260200190815260200160002060010154915050612a76565b80806001019150506129d1565b50600090505b919050565b60008060045411612a8b57600080fd5b6000600190505b6004548111612b31578273ffffffffffffffffffffffffffffffffffffffff166009600083815260200190815260200160002060000160009054906101000a900473ffffffffffffffffffffffffffffffffffffffff1673ffffffffffffffffffffffffffffffffffffffff161415612b24576009600082815260200190815260200160002060010154915050612b37565b8080600101915050612a92565b50600090505b919050565b60008060025411612b4c57600080fd5b6000600190505b6002548111612bf2578273ffffffffffffffffffffffffffffffffffffffff166007600083815260200190815260200160002060000160009054906101000a900473ffffffffffffffffffffffffffffffffffffffff1673ffffffffffffffffffffffffffffffffffffffff161415612be5576007600082815260200190815260200160002060010154915050612bf8565b8080600101915050612b53565b50600090505b919050565b60008060035411612c0d57600080fd5b6000600190505b6003548111612cb3578273ffffffffffffffffffffffffffffffffffffffff166008600083815260200190815260200160002060000160009054906101000a900473ffffffffffffffffffffffffffffffffffffffff1673ffffffffffffffffffffffffffffffffffffffff161415612ca6576008600082815260200190815260200160002060010154915050612cb9565b8080600101915050612c14565b50600090505b919050565b828054600181600116156101000203166002900490600052602060002090601f016020900481019282601f10612cff57805160ff1916838001178555612d2d565b82800160010185558215612d2d579182015b82811115612d2c578251825591602001919060010190612d11565b5b509050612d3a9190612d3e565b5090565b612d6091905b80821115612d5c576000816000905550600101612d44565b5090565b9056fea265627a7a72315820dc4630612f9420acedd28bddae6d26e21e1a266cf9a412ae411a1b455479792d64736f6c63430005100032",
  "source": "// SPDX-License-Identifier: MIT\r\npragma solidity >=0.4.22 <0.9.0;\r\n\r\ncontract SupplyChain {\r\n    //Smart Contract owner will be the person who deploys the contract only he can authorize various roles like retailer, Manufacturer,etc\r\n    address public Owner;\r\n\r\n    //note this constructor will be called when smart contract will be deployed on blockchain\r\n    constructor() public {\r\n        Owner = msg.sender;\r\n    }\r\n\r\n    //Roles (flow of pharma supply chain)\r\n    // RawMaterialSupplier; //This is where Manufacturer will get raw materials to make medicines\r\n    // Manufacturer;  //Various WHO guidelines should be followed by this person\r\n    // Distributor; //This guy distributes the medicines to retailers\r\n    // Retailer; //Normal customer buys from the retailer\r\n\r\n    //modifier to make sure only the owner is using the function\r\n    modifier onlyByOwner() {\r\n        require(msg.sender == Owner);\r\n        _;\r\n    }\r\n\r\n    //stages of a medicine in pharma supply chain\r\n    enum STAGE {\r\n        Init,\r\n        RawMaterialSupply,\r\n        Manufacture,\r\n        Distribution,\r\n        Retail,\r\n        sold\r\n    }\r\n    //using this we are going to track every single medicine the owner orders\r\n\r\n    //Medicine count\r\n    uint256 public medicineCtr = 0;\r\n    //Raw material supplier count\r\n    uint256 public rmsCtr = 0;\r\n    //Manufacturer count\r\n    uint256 public manCtr = 0;\r\n    //distributor count\r\n    uint256 public disCtr = 0;\r\n    //retailer count\r\n    uint256 public retCtr = 0;\r\n\r\n    //To store information about the medicine\r\n    struct medicine {\r\n        uint256 id; //unique medicine id\r\n        string name; //name of the medicine\r\n        string description; //about medicine\r\n        uint256 RMSid; //id of the Raw Material supplier for this particular medicine\r\n        uint256 MANid; //id of the Manufacturer for this particular medicine\r\n        uint256 DISid; //id of the distributor for this particular medicine\r\n        uint256 RETid; //id of the retailer for this particular medicine\r\n        STAGE stage; //current medicine stage\r\n    }\r\n\r\n    //To store all the medicines on the blockchain\r\n    mapping(uint256 => medicine) public MedicineStock;\r\n\r\n    //To show status to client applications\r\n    function showStage(uint256 _medicineID) public view returns (string memory) {\r\n        require(medicineCtr > 0);\r\n        if (MedicineStock[_medicineID].stage == STAGE.Init)\r\n            return \"Product Ordered\";\r\n        else if (MedicineStock[_medicineID].stage == STAGE.RawMaterialSupply)\r\n            return \"Raw Material Supply Stage\";\r\n        else if (MedicineStock[_medicineID].stage == STAGE.Manufacture)\r\n            return \"Manufacturing Stage\";\r\n        else if (MedicineStock[_medicineID].stage == STAGE.Distribution)\r\n            return \"Distribution Stage\";\r\n        else if (MedicineStock[_medicineID].stage == STAGE.Retail)\r\n            return \"Retail Stage\";\r\n        else if (MedicineStock[_medicineID].stage == STAGE.sold)\r\n            return \"Product Sold\";\r\n    }\r\n\r\n    //To store information about raw material supplier\r\n    struct rawMaterialSupplier {\r\n        address addr;\r\n        uint256 id; //supplier id\r\n        string name; //Name of the raw material supplier\r\n        string place; //Place the raw material supplier is based in\r\n    }\r\n\r\n    //To store all the raw material suppliers on the blockchain\r\n    mapping(uint256 => rawMaterialSupplier) public RMS;\r\n\r\n    //To store information about manufacturer\r\n    struct manufacturer {\r\n        address addr;\r\n        uint256 id; //manufacturer id\r\n        string name; //Name of the manufacturer\r\n        string place; //Place the manufacturer is based in\r\n    }\r\n\r\n    //To store all the manufacturers on the blockchain\r\n    mapping(uint256 => manufacturer) public MAN;\r\n\r\n    //To store information about distributor\r\n    struct distributor {\r\n        address addr;\r\n        uint256 id; //distributor id\r\n        string name; //Name of the distributor\r\n        string place; //Place the distributor is based in\r\n    }\r\n\r\n    //To store all the distributors on the blockchain\r\n    mapping(uint256 => distributor) public DIS;\r\n\r\n    //To store information about retailer\r\n    struct retailer {\r\n        address addr;\r\n        uint256 id; //retailer id\r\n        string name; //Name of the retailer\r\n        string place; //Place the retailer is based in\r\n    }\r\n\r\n    //To store all the retailers on the blockchain\r\n    mapping(uint256 => retailer) public RET;\r\n\r\n    //To add raw material suppliers. Only contract owner can add a new raw material supplier\r\n    function addRMS(\r\n        address _address,\r\n        string memory _name,\r\n        string memory _place\r\n    ) public onlyByOwner() {\r\n        rmsCtr++;\r\n        RMS[rmsCtr] = rawMaterialSupplier(_address, rmsCtr, _name, _place);\r\n    }\r\n\r\n    //To add manufacturer. Only contract owner can add a new manufacturer\r\n    function addManufacturer(\r\n        address _address,\r\n        string memory _name,\r\n        string memory _place\r\n    ) public onlyByOwner() {\r\n        manCtr++;\r\n        MAN[manCtr] = manufacturer(_address, manCtr, _name, _place);\r\n    }\r\n\r\n    //To add distributor. Only contract owner can add a new distributor\r\n    function addDistributor(\r\n        address _address,\r\n        string memory _name,\r\n        string memory _place\r\n    ) public onlyByOwner() {\r\n        disCtr++;\r\n        DIS[disCtr] = distributor(_address, disCtr, _name, _place);\r\n    }\r\n\r\n    //To add retailer. Only contract owner can add a new retailer\r\n    function addRetailer(\r\n        address _address,\r\n        string memory _name,\r\n        string memory _place\r\n    ) public onlyByOwner() {\r\n        retCtr++;\r\n        RET[retCtr] = retailer(_address, retCtr, _name, _place);\r\n    }\r\n\r\n    // Mapping to store transaction timestamps\r\n    mapping(uint256 => uint256) public supplyTimestamps;\r\n\r\n    //To supply raw materials from RMS supplier to the manufacturer\r\n    function RMSsupply(uint256 _medicineID) public {\r\n        require(_medicineID > 0 && _medicineID <= medicineCtr);\r\n        uint256 _id = findRMS(msg.sender);\r\n        require(_id > 0);\r\n        require(MedicineStock[_medicineID].stage == STAGE.Init);\r\n        MedicineStock[_medicineID].RMSid = _id;\r\n        MedicineStock[_medicineID].stage = STAGE.RawMaterialSupply;\r\n        supplyTimestamps[_medicineID] = block.timestamp;\r\n    }\r\n\r\n    //To check if RMS is available in the blockchain\r\n    function findRMS(address _address) private view returns (uint256) {\r\n        require(rmsCtr > 0);\r\n        for (uint256 i = 1; i <= rmsCtr; i++) {\r\n            if (RMS[i].addr == _address) return RMS[i].id;\r\n        }\r\n        return 0;\r\n    }\r\n\r\n    // Mapping to store transaction timestamps\r\n    mapping(uint256 => uint256) public manufacturingTimestamps;\r\n\r\n    \r\n    //To manufacture medicine\r\n    function Manufacturing(uint256 _medicineID) public {\r\n        require(_medicineID > 0 && _medicineID <= medicineCtr);\r\n        uint256 _id = findMAN(msg.sender);\r\n        require(_id > 0);\r\n        require(MedicineStock[_medicineID].stage == STAGE.RawMaterialSupply);\r\n        MedicineStock[_medicineID].MANid = _id;\r\n        MedicineStock[_medicineID].stage = STAGE.Manufacture;\r\n        manufacturingTimestamps[_medicineID] = block.timestamp;\r\n    }\r\n\r\n    //To check if Manufacturer is available in the blockchain\r\n    function findMAN(address _address) private view returns (uint256) {\r\n        require(manCtr > 0);\r\n        for (uint256 i = 1; i <= manCtr; i++) {\r\n            if (MAN[i].addr == _address) return MAN[i].id;\r\n        }\r\n        return 0;\r\n    }\r\n    \r\n    // Mapping to store transaction timestamps\r\n    mapping(uint256 => uint256) public distributeTimestamps;\r\n\r\n\r\n    //To supply medicines from Manufacturer to distributor\r\n    function Distribute(uint256 _medicineID) public {\r\n        require(_medicineID > 0 && _medicineID <= medicineCtr);\r\n        uint256 _id = findDIS(msg.sender);\r\n        require(_id > 0);\r\n        require(MedicineStock[_medicineID].stage == STAGE.Manufacture);\r\n        MedicineStock[_medicineID].DISid = _id;\r\n        MedicineStock[_medicineID].stage = STAGE.Distribution;\r\n        distributeTimestamps[_medicineID] = block.timestamp;\r\n    }\r\n\r\n    //To check if distributor is available in the blockchain\r\n    function findDIS(address _address) private view returns (uint256) {\r\n        require(disCtr > 0);\r\n        for (uint256 i = 1; i <= disCtr; i++) {\r\n            if (DIS[i].addr == _address) return DIS[i].id;\r\n        }\r\n        return 0;\r\n    }\r\n\r\n    // Mapping to store transaction timestamps\r\n    mapping(uint256 => uint256) public retailTimestamps;\r\n\r\n    //To supply medicines from distributor to retailer\r\n    function Retail(uint256 _medicineID) public {\r\n        require(_medicineID > 0 && _medicineID <= medicineCtr);\r\n        uint256 _id = findRET(msg.sender);\r\n        require(_id > 0);\r\n        require(MedicineStock[_medicineID].stage == STAGE.Distribution);\r\n        MedicineStock[_medicineID].RETid = _id;\r\n        MedicineStock[_medicineID].stage = STAGE.Retail;\r\n        retailTimestamps[_medicineID] = block.timestamp;\r\n    }\r\n\r\n    //To check if retailer is available in the blockchain\r\n    function findRET(address _address) private view returns (uint256) {\r\n        require(retCtr > 0);\r\n        for (uint256 i = 1; i <= retCtr; i++) {\r\n            if (RET[i].addr == _address) return RET[i].id;\r\n        }\r\n        return 0;\r\n    }\r\n\r\n    //To sell medicines from retailer to consumer\r\n    function sold(uint256 _medicineID) public {\r\n        require(_medicineID > 0 && _medicineID <= medicineCtr);\r\n        uint256 _id = findRET(msg.sender);\r\n        require(_id > 0);\r\n        require(_id == MedicineStock[_medicineID].RETid); //Only correct retailer can mark medicine as sold\r\n        require(MedicineStock[_medicineID].stage == STAGE.Retail);\r\n        MedicineStock[_medicineID].stage = STAGE.sold;\r\n    }\r\n\r\n    // Mapping to store transaction timestamps\r\n    mapping(uint256 => uint256) public medicineTimestamps;\r\n\r\n    // To add new medicines to the stock\r\n    function addMedicine(string memory _name, string memory _description)\r\n        public\r\n        onlyByOwner()\r\n    {\r\n        require((rmsCtr > 0) && (manCtr > 0) && (disCtr > 0) && (retCtr > 0));\r\n        medicineCtr++;\r\n        MedicineStock[medicineCtr] = medicine(\r\n            medicineCtr,\r\n            _name,\r\n            _description,\r\n            0,\r\n            0,\r\n            0,\r\n            0,\r\n            STAGE.Init\r\n        );\r\n\r\n        // Record the current timestamp\r\n        medicineTimestamps[medicineCtr] = block.timestamp;\r\n    }\r\n}\r\n",
  "sourcePath": "E:\\s5\\new push\\Tracabilit-logistique-basee-sur-la-technologie-Blockchain\\javascript-version\\contracts\\SupplyChain.sol",
  "compiler": {
    "name": "solc",
    "version": "0.5.16+commit.9c3226ce.Emscripten.clang"
  },
  "schemaVersion": "3.4.16",
  "updatedAt": "2024-01-03T04:15:37.993Z",
  "networkType": "ethereum",
  "devdoc": {
    "methods": {}
  },
  "userdoc": {
    "methods": {}
  }
}